:020000040800F2
:1000000000800120E56600087D7A0008817A0008FA
:1000100035670008356700083567000800000000F4
:10002000000000000000000000000000356700082C
:10003000857A00080000000035670008897A00080A
:100040003567000835670008356700083567000820
:100050003567000835670008356700083567000810
:100060003567000835670008356700083567000800
:1000700035670008356700083567000835670008F0
:100080003567000835670008356700080000000084
:1000900000000000000000000000000035670008BC
:1000A00035670008356700083567000835670008C0
:1000B000356700088D7A0008356700083567000845
:1000C00035670008356700083567000835670008A0
:1000D0003567000835670008356700080000000034
:1000E000997A0008356700083567000800000000AD
:1000F000000000000000000000000000356700085C
:100100000000000035670008356700083567000803
:1001100000000000000000000000000000000000DF
:10012000356700083567000835670008356700083F
:10013000356700080000000000000000000000001B
:10014000000000000000000000000000356700080B
:10015000356700083567000835670008356700080F
:100160003567000835670008000000000000000047
:10017000000000000000000000000000000000007F
:1001800000000000356700080000000000000000CB
:10019000356700080000000010B5054C237833B91E
:1001A000044B13B10448AFF300800123237010BD4A
:1001B0008013002000000000644A010808B5034BCA
:1001C0001BB103490348AFF3008008BD00000000E5
:1001D00084130020644A010881F0004102E000BF5E
:1001E00083F0004330B54FEA41044FEA430594EAF7
:1001F000050F08BF90EA020F1FBF54EA000C55EA32
:10020000020C7FEA645C7FEA655C00F0E2804FEA02
:100210005454D4EB5555B8BF6D420CDD2C4480EAE4
:10022000020281EA030382EA000083EA010180EA14
:10023000020281EA0303362D88BF30BD11F0004F62
:100240004FEA01314FF4801C4CEA113102D0404298
:1002500061EB410113F0004F4FEA03334CEA1333D3
:1002600002D0524263EB430394EA050F00F0A780EB
:10027000A4F10104D5F1200E0DDB02FA0EFC22FAE6
:1002800005F2801841F1000103FA0EF2801843FADA
:1002900005F359410EE0A5F120050EF1200E012ACB
:1002A00003FA0EFC28BF4CF0020C43FA05F3C01809
:1002B00051EBE37101F0004507D54FF0000EDCF182
:1002C000000C7EEB00006EEB0101B1F5801F1BD32B
:1002D000B1F5001F0CD349085FEA30004FEA3C0C2F
:1002E00004F101044FEA445212F5800F80F09A8025
:1002F000BCF1004F08BF5FEA500C50F1000041EB29
:10030000045141EA050130BD5FEA4C0C404141EB2C
:10031000010111F4801FA4F10104E9D191F0000F53
:1003200004BF01460020B1FA81F308BF2033A3F1D6
:100330000B03B3F120020CDA0C3208DD02F1140CCD
:10034000C2F10C0201FA0CF021FA02F10CE002F108
:100350001402D8BFC2F1200C01FA02F120FA0CFC01
:10036000DCBF41EA0C019040E41AA2BF01EB04514A
:10037000294330BD6FEA04041F3C1CDA0C340EDC48
:1003800004F11404C4F1200220FA04F001FA02F38B
:1003900040EA030021FA04F345EA030130BDC4F149
:1003A0000C04C4F1200220FA02F001FA04F340EA3E
:1003B0000300294630BD21FA04F0294630BD94F0EF
:1003C000000F83F4801306BF81F480110134013DD6
:1003D0004EE77FEA645C18BF7FEA655C29D094EA47
:1003E000050F08BF90EA020F05D054EA000C04BFC5
:1003F0001946104630BD91EA030F1EBF00210020B0
:1004000030BD5FEA545C05D14000494128BF41F04E
:10041000004130BD14F580043CBF01F5801130BDB2
:1004200001F0004545F0FE4141F470014FF000003D
:1004300030BD7FEA645C1ABF194610467FEA655CEE
:100440001CBF0B46024650EA013406BF52EA033590
:1004500091EA030F41F4002130BD00BF90F0000F7E
:1004600004BF0021704730B54FF4806404F13204BA
:100470004FF000054FF0000150E700BF90F0000F73
:1004800004BF0021704730B54FF4806404F132049A
:1004900010F0004548BF40424FF000013EE700BF6A
:1004A00042004FEAE2014FEA31014FEA02701FBFFA
:1004B00012F07F4393F07F4F81F06051704732F02C
:1004C0007F4208BF704793F07F4F04BF41F4002183
:1004D000704730B54FF4607401F0004521F00041E1
:1004E0001CE700BF50EA010208BF704730B54FF06B
:1004F00000050AE050EA010208BF704730B511F06C
:10050000004502D5404261EB41014FF4806404F1A3
:1005100032045FEA915C3FF4D8AE4FF003025FEA29
:10052000DC0C18BF03325FEADC0C18BF033202EBAD
:10053000DC02C2F1200300FA03FC20FA02F001FA07
:1005400003FE40EA0E0021FA02F11444BDE600BFAA
:1005500070B54FF0FF0C4CF4E06C1CEA11541DBF59
:100560001CEA135594EA0C0F95EA0C0F00F0DEF824
:100570002C4481EA030621EA4C5123EA4C5350EA09
:10058000013518BF52EA033541F4801143F480135A
:1005900038D0A0FB02CE4FF00005E1FB02E506F0EB
:1005A0000042E0FB03E54FF00006E1FB03569CF040
:1005B000000F18BF4EF0010EA4F1FF04B6F5007F46
:1005C00064F5407404D25FEA4E0E6D4146EB0606B8
:1005D00042EAC62141EA55514FEAC52040EA5E5041
:1005E0004FEACE2EB4F1FD0C88BFBCF5E06F1ED8EB
:1005F000BEF1004F08BF5FEA500E50F1000041EB22
:10060000045170BD06F0004646EA010140EA0200CE
:1006100081EA0301B4EB5C04C2BFD4EB0C0541EAF0
:10062000045170BD41F480114FF0000E013C00F305
:10063000AB8014F1360FDEBF002001F0004170BD29
:10064000C4F10004203C35DA0C341BDC04F1140442
:10065000C4F1200500FA05F320FA04F001FA05F2CE
:1006600040EA020001F0004221F0004110EBD3709B
:1006700021FA04F642EB06015EEA430E08BF20EAC7
:10068000D37070BDC4F10C04C4F1200500FA04F36A
:1006900020FA05F001FA04F240EA020001F00041FC
:1006A00010EBD37041F100015EEA430E08BF20EA6F
:1006B000D37070BDC4F1200500FA05F24EEA020EB7
:1006C00020FA04F301FA05F243EA020321FA04F0E6
:1006D00001F0004121FA04F220EA020000EBD3709D
:1006E0005EEA430E08BF20EAD37070BD94F0000F9D
:1006F0000FD101F00046400041EB010111F4801FD1
:1007000008BF013CF7D041EA060195F0000F18BF81
:10071000704703F00046520043EB030313F4801FBD
:1007200008BF013DF7D043EA0603704794EA0C0F77
:100730000CEA135518BF95EA0C0F0CD050EA41068D
:1007400018BF52EA4306D1D181EA030101F000410A
:100750004FF0000070BD50EA410606BF1046194632
:1007600052EA430619D094EA0C0F02D150EA01363E
:1007700013D195EA0C0F05D152EA03361CBF10467F
:1007800019460AD181EA030101F0004141F0FE411E
:1007900041F470014FF0000070BD41F0FE4141F4A2
:1007A000780170BD70B54FF0FF0C4CF4E06C1CEAA2
:1007B00011541DBF1CEA135594EA0C0F95EA0C0F57
:1007C00000F0A7F8A4EB050481EA030E52EA033512
:1007D0004FEA013100F088804FEA03334FF0805533
:1007E00045EA131343EA12634FEA022245EA111560
:1007F00045EA10654FEA00260EF000419D4208BF11
:10080000964244F1FD0404F5407402D25B084FEABD
:100810003202B61A65EB03055B084FEA32024FF469
:1008200080104FF4002CB6EB020E75EB030E22BFC6
:10083000B61A754640EA0C005B084FEA3202B6EB86
:10084000020E75EB030E22BFB61A754640EA5C0035
:100850005B084FEA3202B6EB020E75EB030E22BFC5
:10086000B61A754640EA9C005B084FEA3202B6EBC6
:10087000020E75EB030E22BFB61A754640EADC0085
:1008800055EA060E18D04FEA051545EA16754FEAE7
:1008900006164FEAC30343EA52734FEAC2025FEA05
:1008A0001C1CC0D111F4801F0BD141EA00014FF094
:1008B00000004FF0004CB6E711F4801F04BF014365
:1008C0000020B4F1FD0C88BFBCF5E06F3FF6AFAE81
:1008D000B5EB030C04BFB6EB020C5FEA500C50F111
:1008E000000041EB045170BD0EF0004E4EEA113194
:1008F00014EB5C04C2BFD4EB0C0541EA045170BD9B
:1009000041F480114FF0000E013C90E645EA060EDE
:100910008DE60CEA135594EA0C0F08BF95EA0C0F0C
:100920003FF43BAF94EA0C0F0AD150EA01347FF454
:1009300034AF95EA0C0F7FF425AF104619462CE72B
:1009400095EA0C0F06D152EA03353FF4FDAE10468E
:10095000194622E750EA410618BF52EA43067FF4DF
:10096000C5AE50EA41047FF40DAF52EA43057FF46F
:10097000EBAE12E74FF0FF3C06E000BF4FF0010C7A
:1009800002E000BF4FF0010C4DF804CD4FEA410CDE
:100990007FEA6C5C4FEA430C18BF7FEA6C5C1BD0AB
:1009A00001B050EA410C0CBF52EA430C91EA030F2C
:1009B00002BF90EA020F0020704710F1000F91EA89
:1009C000030F58BF994208BF90422CBFD8176FEA57
:1009D000E37040F0010070474FEA410C7FEA6C5C25
:1009E00002D150EA013C07D14FEA430C7FEA6C5C2C
:1009F000D6D152EA033CD3D05DF8040B704700BF58
:100A00008446104662468C461946634600E000BFA5
:100A100001B5FFF7B7FF002848BF10F1000F01BD77
:100A20004DF808EDFFF7F4FF0CBF012000205DF842
:100A300008FB00BF4DF808EDFFF7EAFF34BF0120C7
:100A400000205DF808FB00BF4DF808EDFFF7E0FF60
:100A500094BF012000205DF808FB00BF4DF808EDB1
:100A6000FFF7CEFF94BF012000205DF808FB00BF18
:100A70004DF808EDFFF7C4FF34BF012000205DF8FA
:100A800008FB00BF4FEA410C7FEA6C5C02D150EAE0
:100A9000013C0AD14FEA430C7FEA6C5C02D152EA76
:100AA000033C02D14FF0000070474FF00100704747
:100AB0004FEA410212F5001215D211D56FF4787386
:100AC000B3EB625212D94FEAC12343F0004343EA29
:100AD000505311F0004F23FA02F018BF4042704704
:100AE0004FF00000704750EA013005D111F000408E
:100AF00008BF6FF0004070474FF00000704700BF24
:100B00004FEA4102B2F1E04324BFB3F5001CDCF12F
:100B1000FE5C0DD901F0004C4FEAC0024CEA507067
:100B2000B2F1004F40EB830008BF20F00100704796
:100B300011F0804F21D113F13872BCBF01F0004099
:100B4000704741F480114FEA5252C2F11802C2F1CB
:100B5000200C10FA0CF320FA02F018BF40F001004C
:100B60004FEAC1234FEAD32303FA0CFC40EA0C00FE
:100B700023FA02F34FEA4303CCE77FEA625307D13B
:100B800050EA01331EBF4FF0FE4040F44000704772
:100B900001F0004040F0FE4040F40000704700BF0C
:100BA00053B94AB9002908BF00281CBF4FF0FF31D4
:100BB0004FF0FF3000F072B9ADF1080C6DE904CED2
:100BC00000F006F8DDF804E0DDE9022304B0704728
:100BD0002DE9F047089E04468846002B4BD18A42F7
:100BE000154667D9B2FA82F24AB1C2F1200701FA7A
:100BF00002F320FA07F7954047EA030894404FEACA
:100C0000154E230CB8FBFEF71FFA85FC0EFB178868
:100C100043EA084307FB0CF1994209D9EB1807F1A5
:100C2000FF3080F01B81994240F21881023F2B4433
:100C30005B1AA4B2B3FBFEF00EFB103344EA03448C
:100C400000FB0CFCA44509D92C1900F1FF3380F0FE
:100C50000781A44540F2048102382C4440EA074051
:100C6000A4EB0C0400271EB1D4400023C6E90043C6
:100C70003946BDE8F0878B4209D9002E00F0EB80A1
:100C80000027C6E9000138463946BDE8F087B3FAC7
:100C900083F7002F47D18B4202D3824200F2FA80C1
:100CA000841A61EB030301209846002EE0D0C6E9C8
:100CB0000048DDE702B9FFDEB2FA82F2002A40F016
:100CC0008F80491B4FEA154E1FFA85F80127B1FBAB
:100CD000FEFC230C0EFB1C1143EA014308FB0CF144
:100CE000994207D9EB180CF1FF3002D2994200F279
:100CF000CD808446591AA3B2B1FBFEF00EFB10144E
:100D000043EA044408FB00F8A04507D92C1900F178
:100D1000FF3302D2A04500F2B6801846A4EB0804C7
:100D200040EA0C409FE7C7F1200CBB4022FA0CFEC2
:100D30004EEA030E01FA07F420FA0CF521FA0CF33F
:100D40004FEA1E482543B3FBF8F92C0C08FB193376
:100D50001FFA8EFA44EA034309FB0AF49C4202FAA2
:100D600007F200FA07F10BD91EEB030309F1FF307C
:100D700080F087809C4240F28480A9F1020973448C
:100D80001B1BADB2B3FBF8F008FB103345EA03447C
:100D900000FB0AFAA24508D91EEB040400F1FF3358
:100DA0006BD2A24569D90238744440EA0940A0FBDD
:100DB0000289A4EB0A044C45C2464B4654D351D099
:100DC000002E69D0B1EB0A0564EB030404FA0CFCB5
:100DD000FD40FC404CEA0505C6E90054002747E702
:100DE000C2F1200320FA03F7954001FA02F021FA3C
:100DF00003F34FEA154E3843010CB3FBFEF71FFA1D
:100E000085F80EFB173341EA034107FB08F38B42D9
:100E100004FA02F407D9691807F1FF3C2FD28B427C
:100E20002DD9023F2944CB1A81B2B3FBFEF00EFB51
:100E3000103341EA034100FB08F38B4207D96918DC
:100E400000F1FF3C17D28B4215D902382944C91A48
:100E500040EA07473BE73746304609E70746E7E6FB
:100E60001846FBE64145ABD2B8EB020A69EB0E022D
:100E700001381346A4E76046E9E7184695E7674658
:100E8000D1E781467CE702382C4447E7ACF1020CFD
:100E90002B442FE7384608E73746E9E6704700BF9E
:100EA000044B4B6000224FF001100860CA608B6059
:100EB000002070470000484138B590F828100446DB
:100EC00021B1012384F82830002038BD00F11C0531
:100ED000284600F0C3FA50B90121284600F086FAEE
:100EE00028B92846012100F03FFA0028E9D04FF048
:100EF000FF3038BD07EE901AB7EE007AF4EEC77AED
:100F0000F1EE10FA08B510D9B1EE0C7AF4EEC77A0A
:100F1000F1EE10FA94BF022103211C3000F024FAF4
:100F2000003018BF0120404208BD0121F5E700BF95
:100F300008B51C3000F088FA003018BF012040428C
:100F400008BD00BF30B52DED048B00F11C0483B04B
:100F50000D46204601A900F0EFFA00285BD1BDF94B
:100F6000043008EE103A01A92046B8EEC89A00F005
:100F70008FFA00284FD19DF8043008EE903A01A96D
:100F80002046F8EE689A00F0E1FA002843D1BDF956
:100F9000043008EE103A01A92046B8EEC88A00F0E5
:100FA00083FAC0BB9DF80430ADF8000008EE903A1B
:100FB00020466946F8EE688A00F032FA58BB68EEBF
:100FC000C97ABDF90030E9EE887A07EE103A78EE7A
:100FD000E98AB8EEC77A38EE498AE7EE287A002324
:100FE00087EE887AB5EEC07AF1EE10FA0ED4DFED16
:100FF0000D7AB4EEE77AF1EE10FAC8BFB0EE677A78
:1010000085ED007A03B0BDEC048B30BD2B6003B0DE
:10101000BDEC048B30BD4FF0FF3003B0BDEC048B52
:1010200030BD00BF0000C84230B52DED048B00F18B
:101030001C0483B00D46204601A900F091FA002857
:1010400045D1BDF9043008EE103A01A92046B8EEAA
:10105000C89A00F035FAD0BB9DF8043008EE903AFB
:1010600001A92046F8EE689A00F084FA78BBBDF931
:10107000043008EE103A01A92046B8EEC88A00F004
:101080003DFA20BB9DF80430ADF8000008EE903A20
:1010900020466946F8EE688A00F0CCF9B8B968EEE7
:1010A000C97ABDF90030E9EE887A07EE103A78EE99
:1010B000E98AB8EEC77A38EE498AE7EE287A87EEF1
:1010C000887A85ED007A03B0BDEC048B30BD4FF01B
:1010D000FF3003B0BDEC048B30BD00BF30B4856879
:1010E0004469007B25B1A44641F0400130BC604713
:1010F000A44641F0800130BC604700BF30B4856831
:101100000469007B25B1A44641F0400130BC604732
:10111000A44641F0800130BC604700BF90F8293000
:10112000012B12D010B590F82A30044623B10123C8
:1011300084F82930002010BD01211C3000F08EF908
:101140000028F4D04FF0FF3010BD0020704700BFE2
:1011500090F82A30012B12D010B590F829300446AF
:1011600023B1012384F82A30002010BD01211C3056
:1011700000F074F90028F4D04FF0FF3010BD0020CB
:10118000704700BF10B590F82830012B044603D0FB
:10119000002084F8280010BD90F8293090F82A101B
:1011A00053B90029F4D0002104F11C0000F056F9D5
:1011B00080B984F82A00EBE729B1002384F82930AC
:1011C0000029E5D0EFE71C3000F048F910B994F899
:1011D0002A10F2E74FF0FF3010BD00BF10B582B00B
:1011E0000C461C300DF1070100F0D8F8C0B99DF88D
:1011F0000730032B14D8DFE803F0060A0F020A4B6E
:10120000236002B010BD0023236002B010BD4FF078
:101210007E53236002B010BD044B236002B010BDAA
:101220004FF0FF30EDE700BF000048410000E04014
:1012300090F82A304BB110B590F82910044631B11E
:10124000002384F82A30184610BD184670471C3019
:1012500000F004F90028F3D04FF0FF3010BD00BFBC
:1012600090F829304BB110B590F82A10044631B1EE
:10127000002384F82930184610BD184670471C30EA
:1012800000F0ECF80028F3D04FF0FF3010BD00BFA5
:1012900010B582B00C461C300DF1070100F07EF84D
:1012A000C0B99DF80730032B14D8DFE803F0060A15
:1012B0000F020A4B236002B010BD0023236002B06E
:1012C00010BD4FF07E53236002B010BD044B23606D
:1012D00002B010BD4FF0FF30EDE700BF0000484105
:1012E0000000E04007EE901AB7EE007AF4EEC77AFD
:1012F000F1EE10FA08B510D9B1EE0C7AF4EEC77A17
:10130000F1EE10FA94BF022103211C3000F02CF8FA
:10131000003018BF0120404208BD0121F5E700BFA1
:10132000D0B130B4D1E900348A688260C0E90034B9
:101330000A7B0273D1E904258C6909490261094AD3
:10134000C261C0E90554C0E908100BB130BC1847B0
:101350004FF0FF3030BC70474FF0FF30704700BF98
:10136000DD100008FD10000870B582B004460E467E
:10137000D0E9015001AA01232021A84758B99DF8BE
:1013800004302568A06866F301038DF8043001AAD3
:1013900001232021A84702B070BD00BF30B583B043
:1013A00001230C46D0E9015001AA2021A8479DF84D
:1013B000043003F00303032B13D8DFE803F00E0A15
:1013C00006020323237003B030BD0223237003B051
:1013D00030BD0123237003B030BD0023237003B060
:1013E00030BD0423237003B030BD00BF70B582B0A0
:1013F00004460E46D0E9015001AA01232021A84746
:1014000058B99DF804302568A06866F382038DF80A
:10141000043001AA01232021A84702B070BD00BFFB
:1014200010B4D0E901400A46A446022328215DF801
:10143000044B604710B4D0E901400A46A446022399
:101440002A215DF8044B604710B4D0E901400A46F8
:10145000A44601230F215DF8044B604770B582B0AC
:1014600004460E46D0E9015001AA01232021A847D5
:1014700058B99DF804302568A06866F3C7138DF845
:10148000043001AA01232021A84702B070BD00BF8B
:1014900038B50C460A46D0E9015001233021A8474F
:1014A00023785B08237038BD38B50C460A46D0E96E
:1014B000015001233121A84723785B08237038BDF0
:1014C00070B582B004460D46D0E9016001230DF1EC
:1014D00007023221B04778B9012301AAD4E901609B
:1014E0003521B0479DF804209DF8073002F0030233
:1014F00003EB0223DB102B7002B070BD70B582B01D
:1015000004460D46D0E9016001230DF107023321A5
:10151000B04778B9012301AAD4E901603521B04769
:101520009DF804209DF80730C2F3810203EB0223EB
:10153000DB102B7002B070BD10B4D0E901400A4638
:10154000A446022336215DF8044B604710B4D0E96D
:1015500001400A46A44602233A215DF8044B604745
:1015600010B4D0E901400A46A44602233C215DF8AC
:10157000044B604710B4D0E901400A46A446022358
:101580003E215DF8044B60470022044B4A6040F264
:1015900001120A608B60CB60002070470000964209
:1015A00038B590F82830044623B1012384F8283058
:1015B000002038BD00F11C052846012100F074FB15
:1015C000D0B90146284600F00BFBA8B902212846F5
:1015D00000F0ECFA80B90121284600F0CDFA58B9A4
:1015E000A168284631B900F079FB28B9032384F8B3
:1015F0002B30DAE70121F6E74FF0FF3038BD00BFAE
:1016000008B51C3000F046FB003018BF01204042F6
:1016100008BD00BF38B507EE901A90F82A10B7EE53
:10162000007A0129F4EEC77A23D0F1EE10FA14D92A
:10163000B2EE047AF4EEC77AF1EE10FA04D802237F
:1016400080F82B30002038BDB3EE097AF4EEC77A6B
:10165000F1EE10FA03D80323F2E70123F0E79FED40
:101660001E7AF4EEC77AF1EE10FA94BF0423052334
:10167000E6E7F1EE10FA0ED9B2EE047AF4EEC77A8C
:10168000F1EE10FA18D9B3EE097AF4EEC77AF1EE5A
:1016900010FA13D8032100F11C050446284600F077
:1016A0009FFAA8B904F12B01284600F0B3FA0030E4
:1016B00018BF0120404238BD0221ECE79FED067AB9
:1016C000F4EEC77AF1EE10FA94BF04210521E2E7A7
:1016D0004FF0FF3038BD00BF0000484230B583B046
:1016E0000D4600231C3001A9019300F0BFFA38B960
:1016F0000446019800F02AFA2860204603B030BD65
:101700004FF0FF34F9E700BF30B583B00D4600233A
:101710001C3001A9ADF8043000F0B2FA40B904461B
:10172000BDF9040000F01AFA2860204603B030BD6D
:101730004FF0FF34F9E700BF2DE9F04185682DB186
:101740004469007BA446BDE8F0416047C3B19846B8
:101750008CB2A044164605461FFA88F801E0A04561
:101760000ED0324621466F69287B0123B8470134E9
:10177000A4B201360028F2D04FF0FF30BDE8F0816E
:101780000020FBE72DE9F04185682DB10469007B5D
:10179000A446BDE8F0416047C3B198468CB2A0446E
:1017A000164605461FFA88F801E0A0450ED03246DD
:1017B00021462F69287B0123B8470134A4B20136A2
:1017C0000028F2D04FF0FF30BDE8F0810020FBE7A9
:1017D00090F82930012B0BD010B590F82B1004464F
:1017E0001C3000F0FDF928B9012384F8293010BD20
:1017F000002070474FF0FF3010BD00BF90F82A3036
:10180000012B0BD010B590F82B1004461C3000F0C3
:10181000E7F928B9012384F82A3010BD0020704769
:101820004FF0FF3010BD00BF70B590F82830012B8D
:10183000044603D0002084F8280070BD90F82930B9
:1018400090F82A508BB9002DF4D004F11C052846DD
:1018500004F12B0100F0DEF9F0B90146284600F052
:10186000BFF9C8B984F82A00E4E72DB1002384F851
:101870002930002DDED0E8E700F11C06304604F1E7
:101880002B0100F0C7F938B92946304600F0A8F915
:1018900010B994F82A50E9E74FF0FF3070BD00BF4F
:1018A00010B582B00C461C300DF1070100F0B2F902
:1018B00008BB9DF80730052B1DD8DFE803F0070BA8
:1018C000101418030D4B236002B010BD00232360D9
:1018D00002B010BD4FF07E53236002B010BD084B24
:1018E000236002B010BD074B236002B010BD064B51
:1018F000236002B010BD4FF0FF30E5E700009642D4
:10190000000020410000C8410000484210B582B0EC
:101910000C461C300DF1070100F07CF908BB9DF866
:101920000730052B1DD8DFE803F0070B1014180350
:101930000D4B236002B010BD0023236002B010BD28
:101940004FF07E53236002B010BD084B236002B0FD
:1019500010BD074B236002B010BD064B236002B0E0
:1019600010BD4FF0FF30E5E7000096420000204137
:101970000000C8410000484238B590F8293043B112
:1019800090F82A30044633B1002384F829301846F1
:1019900038BD184638BD00F11C05284604F12B015E
:1019A00000F038F928B90146284600F019F9002856
:1019B000EAD04FF0FF3038BD38B590F82A3043B147
:1019C00090F82930044633B1002384F82A301846B1
:1019D00038BD184638BD00F11C05284604F12B011E
:1019E00000F018F928B90146284600F0F9F8002857
:1019F000EAD04FF0FF3038BD38B507EE901A90F8B6
:101A00002910B7EE007A0129F4EEC77A23D0F1EE5F
:101A100010FA14D9B2EE047AF4EEC77AF1EE10FAA5
:101A200004D8022380F82B30002038BDB3EE097AA9
:101A3000F4EEC77AF1EE10FA03D80323F2E701239C
:101A4000F0E79FED1E7AF4EEC77AF1EE10FA94BF3C
:101A500004230523E6E7F1EE10FA0ED9B2EE047A7C
:101A6000F4EEC77AF1EE10FA18D9B3EE097AF4EE73
:101A7000C77AF1EE10FA13D8032100F11C050446D1
:101A8000284600F0ADF8A8B904F12B01284600F073
:101A9000C1F8003018BF0120404238BD0221ECE7F8
:101AA0009FED067AF4EEC77AF1EE10FA94BF0421A6
:101AB0000521E2E74FF0FF3038BD00BF000048428B
:101AC000002833D030B5D1E900348A688260C0E99B
:101AD00000340A7B0273D1E904258C69154902613F
:101AE000154AC26183B0C0E90554C0E90810D3B1FA
:101AF00004469847B8B9A368022B01D003B030BDA3
:101B000094F82830002BF9D102AA012302F8013DF4
:101B100004F11C00102100F011F8003018BF012062
:101B2000404203B030BD4FF0FF30E7E74FF0FF30E9
:101B3000704700BF391700088517000810B4046803
:101B40008068A4465DF8044B604700BF07EE900A2A
:101B5000FAEECA7A17EE900A704700BF07EE900AB5
:101B6000B8EEE77ADFED037AC7EE277A17EE900A30
:101B7000704700BF0000C84270B582B004460E46F0
:101B8000D0E9015001AA01231021A84758B99DF8B6
:101B900004302568A06866F341038DF8043001AA7B
:101BA00001231021A84702B070BD00BF70B582B0FC
:101BB00004460E46D0E9015001AA01231021A8478E
:101BC00058B99DF804302568A06866F383038DF842
:101BD000043001AA01231021A84702B070BD00BF44
:101BE00070B582B004460E46D0E9015001AA012327
:101BF0001021A84758B99DF804302568A06866F3FD
:101C000006138DF8043001AA01231021A84702B061
:101C100070BD00BF30B583B001230D46D0E901404F
:101C200001AA1021A0479DF80430C3F30213052B2D
:101C300004D8DFE803F007030B0F131701232B7001
:101C400003B030BD00232B7003B030BD02232B70D6
:101C500003B030BD03232B7003B030BD04232B70C1
:101C600003B030BD05232B7003B030BD10B4D0E9F4
:101C700001400A46A446032328215DF8044B60472F
:101C800010B4D0E901400A46A44602232B215DF896
:101C9000044B604710B4D0E901400A46A446012332
:101CA0000F215DF8044B604770B582B004460E46C4
:101CB000D0E9015001AA01231A21A84758B99DF87B
:101CC00004302568A06866F300038DF8043001AA8B
:101CD00001231A21A84702B070BD00BF70B582B0C1
:101CE00004460E46D0E9015001AA01231121A8475C
:101CF00058B99DF804302568A06866F304138DF880
:101D0000043001AA01231121A84702B070BD00BF11
:101D1000074A4A61002010B40023012410220C60FD
:101D2000C1E90102C8600B618B615DF8044B70472B
:101D30000000C843084A8A6110B400234FF480347D
:101D4000002032220C60CA60C1E901000B614B61C6
:101D50005DF8044B704700BF0000C8424FF07F534E
:101D60000B600020704700BF32230B6000207047DB
:101D70000020704708B507EE901A90F82910B7EECA
:101D8000007A0129F4EEC77A29D0F1EE10FA22D9AF
:101D9000B2EE047AF4EEC77AF1EE10FA04D8022318
:101DA00080F82A30002008BDB3EE097AF4EEC77A35
:101DB000F1EE10FA11D99FED2C7AF4EEC77AF1EE1C
:101DC00010FA3CD99FED297AF4EEC77AF1EE10FAB9
:101DD00039D80523E4E70123E2E70323E0E7F1EE46
:101DE00010FA24D9B2EE047AF4EEC77AF1EE10FAC2
:101DF00027D9B3EE097AF4EEC77AF1EE10FA2CD9AE
:101E00009FED197AF4EEC77AF1EE10FA27D99FED1B
:101E1000177AF4EEC77AF1EE10FA22D99FED147A10
:101E2000F4EEC77AF1EE10FA94BF062107211C30B8
:101E300000F070FC003018BF0120404208BD0423B0
:101E4000AEE70221F3E79FED0A7AF4EEC77AF1EEEE
:101E500010FA94BF06230723A2E70321E7E7042132
:101E6000E5E70521E3E700BF000048420000C84263
:101E70000000484338B500F11C0405460121204606
:101E800000F0CEFCA8B90146204600F08FFD80B9D5
:101E90000523014685F82A30204600F03BFC40B976
:101EA0000146204600F086FC18B9012385F8283049
:101EB00038BD4FF0FF3038BD022908B506DD0429D2
:101EC0000DDD0929B4BF0221032100E000211C30EF
:101ED00000F070FC003018BF0120404208BD012115
:101EE000F5E700BF08B51C3000F032FD003018BF28
:101EF0000120404208BD00BF30B500F11C0483B092
:101F00000D4620460DF1060100F0E2FB00283BD112
:101F100020460DF1070100F017FC002834D19DF890
:101F200006209DF80730022A08D0092B2CD8DFE8BC
:101F300003F01215191C1F22250E2B28092B23D85C
:101F4000DFE803F0090C101316191C052825134BA4
:101F50002B6003B030BD00232B60FAE74FF07E53B7
:101F60002B60F6E70E4B2B60F3E70E4B2B60F0E790
:101F70000D4B2B60EDE70D4B2B60EAE70C4B2B6014
:101F8000E7E70C4B2B60E4E74FF0FF30E1E70A4B4B
:101F90002B60DEE7094B2B60DBE700BF0000C84386
:101FA000000020410000C841000048420000C84233
:101FB000000048430000A8440000A8450080CA442F
:101FC00010B582B00C461C300DF1070100F00CFC7E
:101FD000B8B99DF80730032B13D8DFE803F0060AE1
:101FE0000E021023236002B010BD0223236002B052
:101FF00010BD0423236002B010BD0823236002B08B
:1020000010BD4FF0FF30EEE770B500F11C0684B054
:102010000C4630460DF1070100F05AFB00BB9DF85D
:102020000730012B20D019D3022B19D14FF4807522
:10203000304602A900F00EFC90B9BDF90A3093FBBE
:10204000F5F36380BDF90C30BDF9082092FBF5F281
:1020500093FBF5F52280A58004B070BD1025E7E75D
:102060004FF0FF3004B070BD4025E1E707EE901A55
:10207000B2EE047AF4EEC77AF1EE10FA08B508D998
:10208000B3EE047AF4EEC77AF1EE10FA0AD8012121
:1020900000E000211C3000F001FC003018BF0120DE
:1020A000404208BD9FED047AF4EEC77AF1EE10FAD3
:1020B00094BF02210321EDE70000484238B500F14A
:1020C0001C0405460121204600F01EFC90B90221A7
:1020D000204600F0C9FB68B90321204600F0DEFB72
:1020E00040B90146204600F047FC18B9012385F8A5
:1020F000283038BD4FF0FF3038BD00BF08B51C3068
:1021000000F030FC003018BF0120404208BD00BF85
:1021100010B582B00C461C300DF1070100F0D8FB61
:10212000B8B99DF80730032B13D8DFE803F0060A8F
:102130000E02094B236002B010BD084B236002B0B1
:1021400010BD074B236002B010BD064B236002B0E8
:1021500010BD4FF0FF30EEE70000C8420000204104
:102160000000A0410000484210B582B00C461C306F
:10217000694600F0E3FB30B9009ABDF804302260F4
:10218000A38002B010BD4FF0FF30FAE710B582B067
:102190000C461C30694600F0D1FB38BBBDF900305D
:1021A00006EE903ABDF9023007EE103ABDF9043060
:1021B00007EE903AF8EEE66AB8EEC77AF8EEE77AFC
:1021C000B7EE086A66EE866A27EE067A67EE867ACA
:1021D000FDEEE66ABDEEC77AFDEEE77AC4ED006A71
:1021E00084ED017AC4ED027A02B010BD4FF0FF30E9
:1021F000FAE700BF30B485684469007B25B1A44686
:1022000041F0400130BC6047A44641F0800130BC41
:10221000604700BF30B485680469007B25B1A446DF
:1022200041F0400130BC6047A44641F0800130BC21
:10223000604700BF30B485684469007B25B1A4467F
:1022400041F0400130BC6047A44641F0800130BC01
:10225000604700BF30B485680469007B25B1A4469F
:1022600041F0400130BC6047A44641F0800130BCE1
:10227000604700BF90F82930012B0BD010B590F8C3
:102280002A1004461C3000F045FA28B9012384F8CE
:10229000293010BD002070474FF0FF3010BD00BF47
:1022A00038B590F8293004462BB9002084F828006E
:1022B00084F82A0038BD00F11C05284604F12A01E3
:1022C00000F042FA38B90146284600F023FA10B966
:1022D00084F82900E9E74FF0FF3038BD30B500F150
:1022E0001C0483B00D4620460DF1060100F0F0F904
:1022F00010BB9DF80630012B22D00FD3022B1BD12F
:1023000020460DF1070100F06FFAA8B99DF80730DB
:10231000032B11D8DFE803F0233E293820460DF1C6
:10232000070100F061FA38B99DF80730032B03D894
:10233000DFE803F02D24181E4FF0FF3003B030BD4E
:1023400020460DF1070100F04FFA0028F4D19DF866
:102350000730032BF0D8DFE803F0050E02140F4B13
:102360002B60EBE70E4B2B60E8E70E4B2B60E5E7AD
:102370000D4B2B60E2E70D4B2B60DFE70C4B2B6026
:10238000DCE70C4B2B60D9E70B4B2B60D6E70B4BF4
:102390002B60D3E70A4B2B60D0E700BF7B147A4158
:1023A0009A9979407B147A421F853B41713DFA40EE
:1023B0009A99F93F9A993B427B943B4348E17A3F93
:1023C0007B14FA4190F82930012B0AD010B5002176
:1023D00004461C3000F048FA28B9012384F829305B
:1023E00010BD002070474FF0FF3010BD10B590F8C1
:1023F000293004461BB9002084F8280010BD0221B2
:102400001C3000F031FA10B984F82900F3E74FF0DE
:10241000FF3010BD90F829300BB91846704710B541
:10242000022104461C3000F01FFA10B984F829007C
:1024300010BD4FF0FF3010BD38B590F829300BB902
:10244000184638BD044600F11C05284604F12A014F
:1024500000F07AF938B90146284600F05BF910B966
:1024600084F8290038BD4FF0FF3038BD2DE9F04326
:1024700000F11C0885B00E4640460DF1070100F042
:1024800027F9A0BB9DF80730012B38D035D3022B9C
:102490002DD14FF4807402A9404600F0DBF930BB27
:1024A0000DF107014046BDF90850BDF90A2095FB22
:1024B000F4F7BDF90C3092FBF4F593FBF4F400F063
:1024C00007F9814698B99DF80730012B27D018D31A
:1024D000022B0CD102A9404600F086F938B99DF8CC
:1024E0000830032B03D8DFE803F04C6452554FF05B
:1024F000FF39484605B0BDE8F0831024CBE74024FF
:10250000C9E702A9404600F06FF90028EFD19DF815
:102510000830032BEBD8DFE803F04049104302A951
:10252000404600F061F90028E1D19DF80830032B06
:10253000DDD8DFE803F0023826299FED1F6A07EE99
:10254000907AF8EEE76A07EE905AB8EEE77A07EE6F
:10255000904AF8EEE77A66EE866A27EE067A67EE2C
:10256000867AFDEEE66ABDEEC77AFDEEE77A48466A
:10257000C6ED006A86ED017AC6ED027A05B0BDE8C7
:10258000F0839FED0E6ADAE79FED0D6AD7E79FEDC6
:102590000D6AD4E79FED0C6AD1E79FED0C6ACEE798
:1025A0009FED0B6ACBE79FED0B6AC8E79FED0A6AC8
:1025B000C5E79FED0A6AC2E79A9979407B147A4190
:1025C0009A993B427B147A427B943B4348E17A3FA1
:1025D0001F853B41713DFA409A99F93F7B14FA41BE
:1025E000002832D030B5D1E900348A688260C0E971
:1025F00000340A7B0273D1E904258C691449026115
:10260000144AC26183B0C0E90554C0E90810CBB1D7
:1026100004469847B0B9A368012B01D003B030BD80
:1026200094F82820002AF9D102AA04F11C0002F82B
:10263000013D232100F044F8003018BF0120404242
:1026400003B030BD4FF0FF30E8E74FF0FF30704788
:10265000F52100081522000850B338B5D1E900343F
:102660008A688260C0E900340A7B0273D1E90425DC
:102670008C6911490261114AC261C0E90554C0E97F
:10268000081093B10446984778B9A36813B194F839
:10269000283003B138BD04F11C00012100F0A0F97D
:1026A000003018BF0120404238BD4FF0FF3038BD28
:1026B0004FF0FF30704700BF352200085522000858
:1026C00010B404688068A4465DF8044B604700BFFE
:1026D00070B582B004460E46D0E90150012301AA2C
:1026E0002021A84728B9D4E9015001236A462321B3
:1026F000A8479DF8043013F0080307D19DF8002087
:10270000120758BF0123337002B070BD022333702B
:1027100002B070BD70B582B004460E46D0E90150DB
:1027200001AA01232021A84758B99DF80430256843
:10273000A06866F307138DF8043001AA0123202155
:10274000A84702B070BD00BF30B583B001230D466D
:10275000D0E9014001AA2021A0479DF804301B09BF
:10276000013B082B06D8DFE803F0090C0F121518FF
:102770001B1E210000232B7003B030BD01232B70E2
:10278000FAE702232B70F7E703232B70F4E7042307
:102790002B70F1E705232B70EEE706232B70EBE798
:1027A00007232B70E8E708232B70E5E709232B703C
:1027B000E2E700BF70B582B004460E46D0E9015092
:1027C00001AA01232321A84758B99DF804302568A0
:1027D000A06866F305138DF8043001AA01232321B4
:1027E000A84702B070BD00BF30B583B0012301AA75
:1027F0000D46D0E901402321A0479DF80430C3F3E2
:102800000113DAB2022A02D008D8012A02D12B70B1
:1028100003B030BD00232B7003B030BD0323F6E7B7
:1028200070B582B004460E46D0E9015001AA0123DA
:102830002321A84758B99DF804302568A06866F39D
:10284000C7138DF8043001AA01232321A84702B041
:1028500070BD00BF10B4D0E901400A46A44606236B
:1028600028215DF8044B604770B582B004460E46DF
:10287000D0E9015001AA01236021A84758B99DF869
:1028800004302568A06866F301038DF8043001AABE
:1028900001236021A84702B070BD00BF70B582B0AF
:1028A00004460E46D0E9015001AA01236021A84741
:1028B00058B99DF804302568A06866F383038DF845
:1028C000043001AA01236021A84702B070BD00BFF7
:1028D00030B583B0012301AA0D46D0E90140602143
:1028E000A0479DF80430C3F38103DAB2022A02D074
:1028F00008D8012A02D12B7003B030BD00232B7001
:1029000003B030BD0323F6E770B582B004460E462F
:10291000D0E9015001AA01236221A84758B99DF8C6
:1029200004302568A06866F304138DF8043001AA0A
:1029300001236221A84702B070BD00BF10B4D0E9E6
:1029400001400A46A446062368215DF8044B60470F
:1029500010B4D0E901400A46A44601230F215DF8D6
:10296000044B604710B4D0E901400A46A446012355
:102970004F215DF8044B604770B582B004460E46A7
:10298000D0E9015001AA01236221A84758B99DF856
:1029900004302568A06866F341038DF8043001AA6D
:1029A00001236221A84702B070BD00BF70B582B09C
:1029B00004460E46D0E9015001AA01232E21A84762
:1029C00058B99DF804302568A06866F387138DF820
:1029D000043001AA01232E21A84702B070BD00BF18
:1029E00070B582B004460E46D0E9015001AA012319
:1029F0006221A84758B99DF804302568A06866F39D
:102A000045138DF8043001AA01236221A84702B0C2
:102A100070BD00BF30B40022074B8A6140F201153F
:102A20004FF4FA6400201022C1E90054C1E90220E9
:102A30000B614B6130BC70470020D04510B4446935
:102A4000007BA4465DF8044B604700BF10B40469E6
:102A5000007BA4465DF8044B604700BF022908B51F
:102A600006DD04290DDD0929B4BF0321012100E0A1
:102A700000211C3000F0E8FC003018BF012040426B
:102A800008BD0221F5E700BF70B500F11C04054642
:102A90000121204600F048FE30BB0121204600F015
:102AA0000BFE08BB0146204600F058FEE0B90426A4
:102AB000014685F82B60204600F008FDA0B90146CC
:102AC000204600F0C1FC78B9014685F82C6020460C
:102AD00000F09CFD40B92046062100F04FFD18B9DA
:102AE000012385F8283070BD4FF0FF3070BD00BF66
:102AF0007D2908B50ADDFA2911DDB1F5FA7F10DD6F
:102B0000B1F57A7FD4BF0421062100E001211C30F9
:102B100000F034FD003018BF0120404208BD002104
:102B2000F5E70221F3E700BF08B51C3000F0F2FD25
:102B3000003018BF0120404208BD00BF10B582B070
:102B40000C461C300DF1070100F0DAFC002830D1F2
:102B50009DF807300B2B2CD8DFE803F00A0D10137B
:102B600016191C1F22252806134B236002B010BD26
:102B700000232360FAE7114B2360F7E7104B236033
:102B8000F4E7104B2360F1E70F4B2360EEE70F4BA8
:102B90002360EBE70E4B2360E8E70E4B2360E5E78D
:102BA0000D4B2360E2E70D4B2360DFE70C4B236006
:102BB000DCE74FF0FF30D9E7CDCCCC3F00004841F7
:102BC0000000D041000050420000D04200005043BD
:102BD0000000D043004050440080CF4400205045C6
:102BE0000020D04510B582B00C461C300DF1070115
:102BF00000F044FCB8B99DF80730032B13D8DFE888
:102C000003F0060A0E02094B236002B010BD084B08
:102C1000236002B010BD074B236002B010BD064B0D
:102C2000236002B010BD4FF0FF30EEE723DB793EAA
:102C300023DB793D23DBF93E23DBF93D10B582B080
:102C40000C461C300DF1070100F018FCB8B99DF8D6
:102C50000730032B13D8DFE803F0060A0E0208231F
:102C6000236002B010BD0223236002B010BD102308
:102C7000236002B010BD0423236002B010BD4FF0EA
:102C8000FF30EEE710B582B00C461C30694600F00C
:102C900037FD30B9009ABDF804302260A38002B03D
:102CA00010BD4FF0FF30FAE710B582B00C461C3073
:102CB0000DF1070100F0C4FC00282DD19DF807306C
:102CC0000A2B29D8DFE803F00A0D101316191C1F70
:102CD00022250600124B236002B010BD00232360A2
:102CE000FAE7104B2360F7E70F4B2360F4E70F4B35
:102CF0002360F1E70E4B2360EEE70E4B2360EBE71A
:102D00000D4B2360E8E70D4B2360E5E70C4B236098
:102D1000E2E70C4B2360DFE74FF0FF30DCE700BF5A
:102D20000020D045000048410000D0410000504242
:102D30000000D042000050430000D0430040504407
:102D40000080CF440020504510B582B00C461C30A6
:102D50000DF1070100F02CFCE8B99DF80730062BB7
:102D600019D8DFE803F0080C1018141804000C4BF5
:102D7000236002B010BD0B4B236002B010BD0A4BA4
:102D8000236002B010BD094B236002B010BD084B98
:102D9000236002B010BD4FF0FF3002B010BD00BF85
:102DA00000008C4200000C4100008C4000008C416F
:102DB00000000C4210B582B00C461C300DF107012A
:102DC00000F0F6FB00BB9DF80730062B1CD8DFE8AF
:102DD00003F0090D111B161B04004FF4FA63236066
:102DE00002B010BDFA23236002B010BD7D23236022
:102DF00002B010BD4FF4FA73236002B010BD4FF45F
:102E00007A73236002B010BD4FF0FF3002B010BDE6
:102E100010B582B00C461C30694600F067FC30B932
:102E2000009ABDF804302260A38002B010BD4FF0BC
:102E3000FF30FAE708B507EE901A90F82A10B2EEC4
:102E4000097A0129F4EEC77A42D0F1EE10FA3AD9A4
:102E5000B3EE0A7AF4EEC77AF1EE10FA7FD99FED5D
:102E60004D7AF4EEC77AF1EE10FA76D99FED4A7AF0
:102E7000F4EEC77AF1EE10FA75D99FED487AF4EEC8
:102E8000C77AF1EE10FA72D99FED457AF4EEC77A5F
:102E9000F1EE10FA6FD99FED437AF4EEC77AF1EEB6
:102EA00010FA6CD99FED407AF4EEC77AF1EE10FA81
:102EB00069D99FED3E7AF4EEC77AF1EE10FA94BF2D
:102EC00009230A2300E0012380F82C30002008BDEC
:102ED000F1EE10FA39D9B3EE0A7AF4EEC77AF1EED0
:102EE00010FA3ED99FED2B7AF4EEC77AF1EE10FA84
:102EF0003BD99FED297AF4EEC77AF1EE10FA38D972
:102F00009FED267AF4EEC77AF1EE10FA35D99FEDEF
:102F1000247AF4EEC77AF1EE10FA32D99FED217AD5
:102F2000F4EEC77AF1EE10FA2FD99FED1F7AF4EE86
:102F3000C77AF1EE10FA2AD99FED1C7AF4EEC77A1F
:102F4000F1EE10FA94BF09210A211C3000F05EFB5B
:102F5000003018BF0120404208BD0323B4E702231C
:102F6000B2E70221F1E70423AEE70321EDE70523F1
:102F7000AAE70421E9E70623A6E70521E5E70723F9
:102F8000A2E70621E1E708239EE70721DDE7082104
:102F9000DBE700BF000050420000D0420000504379
:102FA0000000D043004050440080CF4400205045F2
:102FB00090F82930012B0BD010B590F82B10044657
:102FC0001C3000F083FA28B9012384F8293010BDA1
:102FD000002070474FF0FF3010BD00BF90F82A303E
:102FE000012B0BD010B590F82C1004461C3000F0CB
:102FF0000DFB28B9012384F82A3010BD002070474A
:103000004FF0FF3010BD00BF38B590F829300446AE
:1030100053B994F82A30D3B9002084F8280084F8F2
:103020002B0084F82C0038BD00F11C05284604F163
:103030002B0100F065FAD0B90146284600F046FAA7
:10304000A8B994F82A3084F82900002BE4D004F1C0
:103050001C05284604F12C0100F0F2FA38B90146AB
:10306000284600F0D3FA10B984F82A00D4E74FF0CC
:10307000FF3038BD08B507EE901A90F82910B2EE6F
:10308000097A0129F4EEC77A42D0F1EE10FA3AD962
:10309000B3EE0A7AF4EEC77AF1EE10FA7FD99FED1B
:1030A0004D7AF4EEC77AF1EE10FA76D99FED4A7AAE
:1030B000F4EEC77AF1EE10FA75D99FED487AF4EE86
:1030C000C77AF1EE10FA72D99FED457AF4EEC77A1D
:1030D000F1EE10FA6FD99FED437AF4EEC77AF1EE74
:1030E00010FA6CD99FED407AF4EEC77AF1EE10FA3F
:1030F00069D99FED3E7AF4EEC77AF1EE10FA94BFEB
:1031000009230A2300E0012380F82B30002008BDAA
:10311000F1EE10FA39D9B3EE0A7AF4EEC77AF1EE8D
:1031200010FA3ED99FED2B7AF4EEC77AF1EE10FA41
:103130003BD99FED297AF4EEC77AF1EE10FA38D92F
:103140009FED267AF4EEC77AF1EE10FA35D99FEDAD
:10315000247AF4EEC77AF1EE10FA32D99FED217A93
:10316000F4EEC77AF1EE10FA2FD99FED1F7AF4EE44
:10317000C77AF1EE10FA2AD99FED1C7AF4EEC77ADD
:10318000F1EE10FA94BF09210A211C3000F09EF9DB
:10319000003018BF0120404208BD0323B4E70223DA
:1031A000B2E70221F1E70423AEE70321EDE70523AF
:1031B000AAE70421E9E70623A6E70521E5E70723B7
:1031C000A2E70621E1E708239EE70721DDE70821C2
:1031D000DBE700BF000050420000D0420000504337
:1031E0000000D043004050440080CF4400205045B0
:1031F00038B590F82A300BB9184638BD044600F1AE
:103200001C05284604F12C0100F01AFA38B90146D1
:10321000284600F0FBF910B984F82A0038BD4FF0B9
:10322000FF3038BD38B590F829300BB9184638BD95
:10323000044600F11C05284604F12B0100F060F95A
:1032400038B90146284600F041F910B984F8290040
:1032500038BD4FF0FF3038BD30B500F11C0585B0EA
:103260000C46284602A900F04BFA68B928460DF131
:10327000070100F003F938B99DF80730032B03D894
:10328000DFE803F02E3134064FF0FF3005B030BDDB
:103290009FED186ABDF9083006EE903ABDF90A3084
:1032A00007EE103ABDF90C3007EE903AF8EEE66AF8
:1032B000B8EEC77AF8EEE77A66EE866A27EE067A07
:1032C00067EE867AFDEEE66ABDEEC77AFDEEE77A36
:1032D000C4ED006A84ED017AC4ED027A05B030BD18
:1032E0009FED056AD6E79FED056AD3E79FED046A77
:1032F000D0E700BF23DB793E23DB793D23DBF93EBA
:1033000023DBF93D30B500F11C0585B00C4628469D
:1033100002A900F0EBF978B928460DF1070100F099
:1033200047F948B99DF80730062B05D8DFE803F0C8
:1033300039303304360408004FF0FF3005B030BD9B
:103340009FED196ABDF9083006EE903ABDF90A30D2
:1033500007EE103ABDF90C3007EE903AF8EEE66A47
:10336000B8EEC77AF8EEE77A66EE866A27EE067A56
:1033700067EE867AFDEEE66ABDEEC77AFDEEE77A85
:10338000C4ED006A84ED017AC4ED027A05B030BD67
:103390009FED066AD6E79FED066AD3E79FED056AC3
:1033A000D0E79FED056ACDE700008C4200008C401D
:1033B00000008C4100000C4200000C41002834D079
:1033C00030B5D1E900348A688260C0E900340A7BF4
:1033D0000273D1E904258C6915490261154AC2615D
:1033E00083B0C0E90554C0E90810DBB10446984732
:1033F000C0B9A368022B01D003B030BD94F82830C7
:10340000002BF9D102AA0C2302F8013D04F11C00A3
:103410000123122100F010F8003018BF01204042B3
:1034200003B030BD4FF0FF30E6E74FF0FF3070479C
:103430003D2A00084D2A000810B404688068A4469C
:103440005DF8044B604700BF70B582B004460E467D
:10345000D0E9015001AA01231021A84758B99DF8CD
:1034600004302568A06866F383038DF8043001AA50
:1034700001231021A84702B070BD00BF30B583B052
:1034800001230C46D0E9015001AA1021A8479DF85C
:103490000430C3F38103032B13D8DFE803F00E0AD3
:1034A00006020323237003B030BD0223237003B050
:1034B00030BD0123237003B030BD0023237003B05F
:1034C00030BD0423237003B030BD00BF70B582B09F
:1034D00004460E46D0E9015001AA01231021A84755
:1034E00058B99DF804302568A06866F307138DF875
:1034F000043001AA01231021A84702B070BD00BF0B
:1035000030B583B001230D46D0E9014001AA102156
:10351000A0479DF804301B090B2B2CD8DFE803F0E3
:103520000A0D101316191C1F222528060B232B70B9
:1035300003B030BD00232B70FAE701232B70F7E7AF
:1035400002232B70F4E703232B70F1E704232B7085
:10355000EEE705232B70EBE706232B70E8E7072344
:103560002B70E5E708232B70E2E709232B70DFE7D8
:103570000A232B70DCE70C232B70D9E770B582B0DF
:1035800004460E46D0E9015001AA01231121A847A3
:1035900058B99DF804302568A06866F343038DF898
:1035A000043001AA01231121A84702B070BD00BF59
:1035B00030B583B001230D46D0E9014001AA1121A5
:1035C000A0479DF80430C3F34203062B19D8DFE867
:1035D00003F0080C10181418040006232B7003B015
:1035E00030BD00232B7003B030BD01232B7003B01E
:1035F00030BD02232B7003B030BD04232B7003B009
:1036000030BD07232B7003B030BD00BF70B582B052
:1036100004460E46D0E9015001AA01231121A84712
:1036200058B99DF804302568A06866F307138DF833
:10363000043001AA01231121A84702B070BD00BFC8
:1036400030B583B001230D46D0E9014001AA112114
:10365000A0479DF804301B090A2B29D8DFE803F0A6
:103660000A0D101316191C1F222506000A232B70A1
:1036700003B030BD00232B70FAE701232B70F7E76E
:1036800002232B70F4E703232B70F1E704232B7044
:10369000EEE705232B70EBE706232B70E8E7072303
:1036A0002B70E5E708232B70E2E709232B70DFE797
:1036B0000B232B70DCE700BF70B582B004460E46CA
:1036C000D0E9015001AA01231221A84758B99DF859
:1036D00004302568A06866F386138DF8043001AACB
:1036E00001231221A84702B070BD00BF10B4D0E979
:1036F00001400A46A446062322215DF8044B604798
:1037000010B4D0E901400A46A446062328215DF8FA
:10371000044B604710B4D0E901400A46A446012397
:103720000F215DF8044B604770B582B004460E4629
:10373000D0E9015001AA01231221A84758B99DF8E8
:1037400004302568A06866F382038DF8043001AA6E
:1037500001231221A84702B070BD00BF70B582B02E
:1037600004460E46D0E9015001AA01230A21A847C8
:1037700058B99DF804302568A06866F302038DF8F7
:10378000043001AA01230A21A84702B070BD00BF7E
:103790002DE9F04F0E468DB00546002800F09880C8
:1037A000012846D19D4B9E4C05930022BB2304F17A
:1037B00054090DF1140B07928DF82030994A9A4B59
:1037C00006920A93994A9A4B0992484659460B9396
:1037D000FEF776F940BB0DF103014846FDF710FFF7
:1037E00010BB9DF80330B12B1ED101A94846FDF74F
:1037F000CBFE9DF806309DF805009DF804208D4F06
:103800008D49C7F804909B0043EA4003134316F028
:1038100001082363A16311D0012A0FD1874A0B68E5
:10382000A2644846984748B14FF0FF300DB0BDE85C
:10383000F08F6FF001000DB0BDE8F08F16F0020AB6
:103840000BD09DF80530012B07D1A36B7C4A1B6878
:103850007868E26498470028E6D116F00409E3D1BD
:10386000A36B7868DB6859469847002840F0D280FF
:103870009DF814609DF81630A6F10106012BB6FAEA
:1038800086F69DF815304FEA561608BF46F0040636
:10389000012B00F0A880B8F1000F40F08B80BAF146
:1038A000000F0DD0B3070BD505EB450304EB8303E5
:1038B00057F825001B6C1B689847002840F089804A
:1038C000B9F1000F40F0968000200DB0BDE8F08FF8
:1038D000BF22524B524C8DF820200DF1140B514A4F
:1038E0000593514B079006920A93504A504B099208
:1038F000204659460B93FDF713FD002894D10DF196
:1039000003012046FDF714FB00288DD19DF80330FC
:10391000BC2B89D101A92046FDF7C2FA9DF80630DB
:103920009DF805009DF80420424F46493C609B00ED
:1039300043EA4003134316F00108E362616309D0D0
:10394000012A07D1404A0B68E263204698470028C5
:103950007FF46AAF16F004090CD09DF80630012BF5
:1039600008D1636B394A1B6838686264984700283D
:103970007FF45AAF16F0020A7FF456AF636B3868D3
:10398000DB6859469847002844D19DF814609DF89B
:103990001630A6F10106012BB6FA86F69DF8153011
:1039A0004FEA561608BF46F00406012B14D0B8F1B2
:1039B000000F85D0F2077FF572AF05EB450304EBEE
:1039C000830357F82500DB6B1B68984700283FF4FA
:1039D00066AF6FF004002EE746F00206B8F1000F64
:1039E0003FF46EAFE6E746F00206B8F1000F3FF491
:1039F00056AFDFE771077FF567AF05EB450304EBD3
:103A0000830457F82500636C1B68984700283FF42F
:103A10005BAFDEE76FF006000DE700BF61760008E0
:103A20009C1300209D750008FD750008D1750008E5
:103A300029760008D82500206000002038000020EA
:103A40004C0000202800002000000020140000206E
:103A500001281BD810B5104C04EB8003DA6A0A4029
:103A60008A4216D103460D480D4950F8222051F8DC
:103A7000230003EB4303134404EB8303DB6B1B685A
:103A80009847002818BF6FF0040010BD6FF00100C8
:103A900070476FF0010010BD9C130020804A0108A0
:103AA000D825002001281BD810B5104C04EB80034A
:103AB000DA6A0A408A4216D103460D480D4950F889
:103AC000222051F8230003EB4303134404EB830348
:103AD000DB6B5B689847002818BF6FF0040010BDCF
:103AE0006FF0010070476FF0010010BD9C130020C3
:103AF000804A0108D825002001281CD838B5114D6E
:103B000005EB8003DC6A0C408C4217D111460E4A4B
:103B100003460E4852F8242050F8230003EB4303D9
:103B2000134405EB8303DB6B1B699847002818BF20
:103B30006FF0040038BD6FF0010070476FF00100B6
:103B400038BD00BF9C130020804A0108D825002002
:103B50002DE9F047012890B006460D4600F0D480CC
:103B6000C0F0848002287CD1AC4BAD4C0293002283
:103B70003D2304F1980904928DF81430A94AAA4B08
:103B800003920793A94AAA4B0692484602A90893B2
:103B9000FEF762FD002840F0B2800DF107014846B3
:103BA000FEF7ACFA002840F0AA809DF80730402BC1
:103BB00040F0A5800DF1240841464846FEF7BAF8CA
:103BC0009DF826209DF824009DF82510994F93001C
:103BD00043EA40030B4315F0040A9749A363C7F86F
:103BE0000890616440F00E81AB0700F18880E8071F
:103BF00000F18580636CB868DB684146984700280F
:103C000040F065819DF824309DF825C09DF8262060
:103C1000012B1DBF052501230420072509BF032310
:103C2000002106200221BCF1010F1CBF05460B46F6
:103C3000012A18BF1D46BAF1000F00F0C9806907BC
:103C400040F1C68006EB460304EB830457F82600D8
:103C5000236D1B689847002800F0BA806FF00400BD
:103C600001E06FF0010010B0BDE8F0876B4B6C4CC9
:103C700002930022D72304928DF81430694A6A4BCC
:103C800003920793694A6A4B0692204602A9089359
:103C9000FFF794FB98BB0DF107012046FEF744FFA8
:103CA00068BB9DF807306A2B29D10DF124084146E5
:103CB0002046FEF7AFFE9DF826309DF824009DF8C3
:103CC00025205C4F5D493C609B0043EA4003134361
:103CD00015F001092363E16340F0888015F0020AC2
:103CE0000AD09DF82430012B06D1E36B544A1B689F
:103CF0003868E264984710B9680740F1AB804FF02C
:103D0000FF3010B0BDE8F087444B454C02930022D1
:103D1000332304F16C0904928DF81430414A424B6C
:103D200003920793414A424B0692484602A90893E0
:103D3000FEF756FC0028E2D10DF107014846FEF7D8
:103D4000D1F80028DBD19DF80730332BD7D10DF106
:103D5000240841464846FDF7DBFF9DF824209DF8E6
:103D600026009DF82510334F530043EA80030B4390
:103D700015F0020A33496363C7F8049021642BD11C
:103D8000E907BCD46A07BAD4236C7868DB6841467B
:103D90009847002840F09B809DF824309DF825C06E
:103DA0009DF82620012B1BBF012305250323042199
:103DB00009BF0725002006210220BCF1010F1CBF0E
:103DC00003460D46012A18BF1D46BAF1000F70D1F7
:103DD000002010B0BDE8F087012AD1D11A4A0B6843
:103DE000A26548469847002889D1C9E7012A7FF48F
:103DF00075AF164A0B68A2642046984700287FF4E6
:103E00007EAF6BE7012A7FF4EFAE114A0B68A26622
:103E10004846984700287FF472AFE5E661760008CF
:103E20001C1400209D750008FD750008D175000860
:103E300029760008E02500209400002020010020C1
:103E4000FC000020C8000020A4000020D8000020B2
:103E500070000020E36B3868DB6841469847002813
:103E600035D19DF824309DF825C09DF82620012BE2
:103E70001FBF052501233046042101BF0725032369
:103E800002200621BCF1010F1CBF03460D46012A8A
:103E900018BF1D46B9F1000F97D0EA0795D5A36C5E
:103EA00038681B68984700287FF4D8AEBAF1000F35
:103EB0008ED0AB078CD506EB460304EB830457F892
:103EC0002600E36C1B689847002881D0C6E66FF097
:103ED0000600C8E602281BD810B5104C04EB80037E
:103EE0001A6B0A408A4216D103460D480D4950F814
:103EF000222051F8230003EB4303134404EB830314
:103F00009B6C1B689847002818BF6FF0040010BD19
:103F10006FF0010070476FF0010010BD1C1400200D
:103F2000944A0108E025002002281BD810B5104C47
:103F300004EB80031A6B0A408A4216D103460D48EF
:103F40000D4950F8222051F8230003EB430313449A
:103F500004EB83039B6C5B689847002818BF6FF0E5
:103F6000040010BD6FF0010070476FF0010010BD3C
:103F70001C140020944A0108E025002002281CD8C7
:103F800038B5114D05EB80031C6B0C408C4217D1EA
:103F900011460E4A03460E4852F8242050F82300DA
:103FA00003EB4303134405EB83039B6CDB699847E6
:103FB000002818BF6FF0040038BD6FF00100704793
:103FC0006FF0010038BD00BF1C140020944A0108A6
:103FD000E0250020F0B587B00024104B00941A6B48
:103FE0000F4D42F001021A631B6B039403F00103AF
:103FF0000646009355F82000009B2027022301224B
:1040000001A9CDE90172049300F03CFA2246394639
:1040100055F8260000F0AEFB07B0F0BD00380240B6
:1040200030010020034B012253F82000202100F032
:10403000A1BB00BF30010020034B002253F8200039
:10404000202100F097BB00BF3001002030B587B0C1
:104050001B4B002500951C6B44F004041C631B6B78
:1040600003F004030093009BD1B1012901D007B0F4
:1040700030BD144B144A029203EB800001A94FF4A7
:10408000005340680193039500F0FCF92A460F2184
:10409000282000F0BFF8282000F0F2F807B030BD6B
:1040A000084B029103EB80004FF4005301934068EA
:1040B000022301A9CDE9033300F0E4F907B030BDD4
:1040C00000380240300100200000211008B5044BE8
:1040D00003EB80004FF40051406800F045FB08BD41
:1040E000300100201049114BD1F8882042F47002B1
:1040F00010B4C1F888201A680D4C002042F001026B
:104100001A6098601A6822F0847222F480321A6071
:104110005C601A684FF0006422F480221A60D86054
:104120008C605DF8044B704700ED00E00038024001
:1041300010300024704700BF70B50E4B0E4D1B6849
:104140002A7806464FF47A70B0FBF2F0B3FBF0F039
:1041500000F0A2F808B90F2E01D9012070BD044665
:10416000024631464FF0FF3000F054F86E602046B2
:1041700070BD00BF3C0100204001002008B5094B84
:104180001A6842F400721A601A6842F480621A6077
:10419000032000F02DF80F20FFF7CEFFFFF7CAFF36
:1041A000002008BD003C0240034A044B11681B7804
:1041B0000B441360704700BFEC2500204001002035
:1041C000014B1868704700BFEC25002038B5044645
:1041D000FFF7F6FF631C054602D0044B1B781C4416
:1041E000FFF7EEFF401BA042FAD338BD400100208C
:1041F000074AD3684FF6FF010B40000243F0BF634C
:1042000000F4E06043F400330343D360704700BF21
:1042100000ED00E0184BDB68C3F3022330B4C3F1B8
:104220000705042D03F1040428BF0425062C19D921
:10423000033B4FF0FF349C4022EA04044FF0FF326E
:10424000AA4021EA020101FA03F2224312010028E6
:10425000D2B20ADB00F1604000F5614080F8002333
:1042600030BC704700242346E8E7044B00F00F0001
:1042700003441A7630BC704700ED00E0FCEC00E02F
:1042800000F01F0101234009024A8B4042F8203010
:10429000704700BF00E100E00138B0F1807F0ED22E
:1042A000084B10B4084C5860F02084F8230000221A
:1042B000072110469A6019605DF8044B7047012091
:1042C000704700BF10E000E000ED00E0F8B50446E4
:1042D000FFF776FF002C54D00222236884F83520A3
:1042E0001A68002122F0010284F8341005461A6091
:1042F00005E0FFF765FF401B05283BD823681A68D7
:10430000D107F6D4D4E90126D4E9035132436069D8
:104310001F682A43D4E906650A430243216A3548E7
:1043200032432A430A43616A3840042942EA0002C0
:1043300029D01A605A6922F007021143DAB22E48D6
:104340005961103AA0FB021212092C4923F47F7321
:10435000895CE16523F00303032A88BF04333F220D
:104360008A4001250021A36508469A60616584F8AA
:104370003550F8BD032320226265184684F8353095
:10438000F8BD0120F8BDD4E90B0101430A43A56A39
:104390001A605A6945F0040122F00702114300280F
:1043A000CCD07EB1B6F5005F16D0022D03D9032D17
:1043B000C4D1C201C2D5012340226265184684F8E7
:1043C0003530F8BD012D03D0F3D3022DB6D1F0E77F
:1043D000B0F1C07FB2D1EEE7032DAFD801A252F801
:1043E00025F000BFB7430008B3430008B7430008F7
:1043F000D14300083F8010F0ABAAAAAAC04A010826
:10440000F0B490F83440012C39D090F83540866DE6
:104410000125AC4280F834502BD1046802270025D6
:1044200080F8357045652568876825F48025402F1C
:10443000256063600ABFA260A160E160C16D18BF22
:10444000E2603F238B40026CB360236843F01603A5
:104450002360636943F0800363611AB1236843F00A
:1044600008032360236843F0010323600020F0BCAD
:104470007047002380F83430F0BC022070470220DF
:10448000F0BC70472DE9F04FDFF8B4C1D1F80080DF
:1044900083B08E4600254FF0010902E00135102D52
:1044A0007ED009FA05F308EA03018B42F6D1DEF863
:1044B000044024F0100ABAF1020F74D06F000322F6
:1044C000D0F800B0BA40D24304F0030602EA0B0B66
:1044D000BE400AF1FF3A46EA0B06BAF1010F066048
:1044E00040F28280C668DEF808303240BB40134399
:1044F000E700C360D2D54D4A00230193536C43F4C7
:1045000080435364536C25F0030606F1804603F4A0
:10451000804306F59C36019305F00302019BB768C2
:1045200092000F23934027EA0303414FB84211D072
:1045300007F58067B8426AD03E4FB8426BD03E4F15
:10454000B8426DD03D4FB8420CBF0427072707FA89
:1045500002F21343B360DCF80030CA43E60354BFF1
:1045600013400B43CCF80030DCF80430A70354BFF1
:1045700013400B43CCF80430DCF80830E60254BF9B
:1045800013400B43CCF80830DCF80C30A40205F1E2
:10459000010554BF13400B43102DCCF80C3080D1D3
:1045A00003B0BDE8F08FEF0800EB870705F00706C2
:1045B0003A6AB6004FF00F0B0BFA06FB22EA0B0A21
:1045C000DEF81020B24042EA0A023A626F0003228B
:1045D000D0F800A0BA40D24304F003060AEA020A67
:1045E000BE4046EA0A060660866806EA020ADEF867
:1045F0000C60BE4046EA0A068660D0F804A0C4F308
:1046000000162AEA0303AE401E4346606AE709FA31
:1046100002F213439EE7022707FA02F2134399E7D7
:10462000032707FA02F2134394E700BF0038024061
:104630000000024000080240000C0240001002404E
:10464000003C01402DE9F04F002383B0DFF81491C6
:104650004FF001084FF00F0A4FF0030B02E0013357
:10466000102B66D008FA03F404EA0105AC42F6D137
:1046700023F0030606F1804606F59C3603F003029C
:10468000B76892000AFA02FC0CEA07070197314F5B
:10469000B84251D007F58067B8424FD02E4FB8428C
:1046A0004FD02E4FB84251D02D4FB84214BF4FF0CB
:1046B000070E4FF0040E0EFA02F2019F974218D136
:1046C000B26822EA0C02B260D9F80020ED432A4019
:1046D000C9F80020D9F804202A40C9F80420D9F8E4
:1046E00008202A40C9F80820D9F80C201540C9F83C
:1046F0000C505A0005680BFA02F2D243DE0815404E
:1047000000EB8606056003F00705376AAD000AFA7C
:1047100005F527EA05053562856815408560456819
:1047200025EA04044460C46801332240102BC260AF
:1047300098D103B0BDE8F08F0022BEE708FA02F27C
:10474000BBE74FF0020E0EFA02F2B6E70BFA02F2E6
:10475000B3E700BF0000024000080240000C024026
:1047600000100240003C01400369194214BF0120BF
:104770000020704702B9090481617047044A5169F9
:10478000014200D1704708B5506102F0E9FE08BD52
:10479000003C01402DE9F0420546006882B08946A0
:1047A0000168089C41F4807116461F460160621C36
:1047B00040D14369DB07FCD509F0FE010161631CB0
:1047C00012D043699B0712D443695A053ED4FFF7C0
:1047D000F7FC099BC01A844250D3002C4ED02868A5
:1047E000EDE743695A0531D443699907F9D50023A8
:1047F00001934369019383690193019B621C03D078
:1048000065E04369590548D443691B06F9D5012F72
:104810000AD0330A0361671C03D067E043695A0575
:104820003BD443691906F9D5F6B20661002002B0FF
:10483000BDE8F0824369D907BED4FFF7C1FC099BEC
:10484000C01A84421AD3CCB12868B0E703680022AA
:104850006FF4806443F400732021036044612A6391
:1048600085F83D1085F83E202B6C85F83C2043F000
:10487000040301202B6402B0BDE8F0820022202353
:104880002A6385F83D3085F83E202B6C85F83C2066
:1048900043F020032B640120C9E7002220236FF49A
:1048A000806141612A6385F83D3085F83E202B6C9C
:1048B00085F83C2043F004032B642B6C042B04D1BB
:1048C0002A68136843F4007313600120AFE743695B
:1048D0001A069CD443695905DFD4FFF771FC099B84
:1048E000C01A844211D384B1286887E743691B0644
:1048F0009AD443695B05D0D4FFF762FC099BC01AC8
:10490000844202D30CB1286885E7002220232A6361
:1049100085F83D3085F83E202B6C85F83C2043F02F
:1049200020032B64C9E700BF2DE9F042054600686B
:104930008946016841F480610160016882B041F4F8
:104940008071089C016016461F46611C57D143695F
:10495000DA07FCD55FFA89F909F0FE030361621CEE
:1049600012D043699A0712D44369590553D4FFF70B
:1049700027FC099BC01A84427CD3002C7AD028687B
:10498000EDE74369590546D443699B07F9D50023F0
:1049900001934369019383690193019B611C03D0D7
:1049A00076E043695B054ED443691A06F9D5012FB9
:1049B0007ED1F6B20661671C03D08DE043695905CC
:1049C00041D443691E06F9D5036843F4807303603C
:1049D000631C40F0A1804369DF07FCD549F0010961
:1049E000C0F81090621C03D0B2E043695B0512D49A
:1049F0004369DB4313F00203F7D1184620E0436913
:104A0000DB07A7D4FFF7DCFB099BC01A844231D334
:104A100084B3286899E70368002243F400736FF4B5
:104A200080642021036044612A6385F83D1085F885
:104A30003E202B6C85F83C2043F004032B640120BE
:104A400002B0BDE8F082002220236FF48061416152
:104A50002A6385F83D3085F83E202B6C85F83C2094
:104A600043F004032B642B6C042B2ED0012002B0E6
:104A7000BDE8F082002220232A6385F83D3085F8C6
:104A80003E202B6C85F83C2043F020032B64EDE79F
:104A9000436919068BD443695B05D4D4FFF790FBB7
:104AA000099BC01A844245D3002C43D0286875E77F
:104AB000330A0361631C03D01EE043695905C2D465
:104AC00043691F063FF575AFF7E72A68136843F49B
:104AD000007313600120B3E743691A063FF574AF12
:104AE00043695B05AFD4FFF76BFB099BC01A844297
:104AF00020D3FCB128685EE743691A063FF559AF39
:104B000043695A059FD4FFF75BFB099BC01A844297
:104B100010D37CB12868CDE74369DE073FF55EAF6F
:104B2000FFF74EFB099BC01A8442A3D3002CA1D0EF
:104B300028684DE7002220232A6385F83D3085F858
:104B40003E202B6C85F83C2043F020032B648AE741
:104B50004369DB4313F002033FF44FAF4369590548
:104B60003FF559AFFFF72CFB099BC01A844281D354
:104B7000002C3FF47FAF286834E700BF002800F026
:104B80009780F8B590F83D30044603F0FF02002B03
:104B900000F087802268242384F83D30136823F0D6
:104BA0000103136000F0ECFD61684B4B99424BD858
:104BB0004A4B98427AD92268494B5568A3FB006357
:104BC0009B0C25F03F051D435560156A013325F008
:104BD0003F052B431362D5694900431EB3FBF1F334
:104BE0000133C3F30B0325F44F45042B38BF0423D3
:104BF00025F0FF052B43D361D4E9073510682169FF
:104C000020F0C0002B43034313609068E56863699C
:104C100020F4034020F0FF00294301439160D16854
:104C2000A06921F0FF0103430B43D3601168002307
:104C300041F00101202511601846236484F83D509D
:104C4000236384F83E30F8BD264B98422ED9226863
:104C5000234B5668244FA3FB00539D0C26F03F06C0
:104C60002E434FF49673566003FB05F3A7FB0353E3
:104C7000156AA6689B0925F03F0501332B43136293
:104C8000D56925F44F45013825F0FF0596B901EBAC
:104C90004101B0FBF1F00130C0F30B00C0B90123BA
:104CA000A8E780F83C2002F0ADFE73E70120F8BDD4
:104CB0000120704701EB810101EB8101B0FBF1F0B4
:104CC0000130C0F30B000028E9D040F4404391E7E5
:104CD00040F400438EE700BFA08601007F841E00E1
:104CE00083DE1B43FF083D00D34D6210B0B1026864
:104CF000242310B580F83D30136823F001030446E7
:104D0000136002F0ADFE0023236484F83C3084F885
:104D10003D301846236384F83E3010BD01207047B3
:104D20002DE9F04F044683B099460F469046BDF8F2
:104D300034A00E9EFFF744FA94F83D30202B04D0A7
:104D40000227384603B0BDE8F08F054605E0FFF7BF
:104D500037FA401B192800F2A68022689369DB43CA
:104D600013F0020BF3D094F83C30012BE8D0136819
:104D70000121D80784F83C1002D413680B43136058
:104D800013685E4823F400631360212384F83D30E8
:104D90004022002384F83E202364A4F82AA0B4F81B
:104DA0002AC00C9B63623946CDE900654B46E06240
:104DB0004246A4F828C02046FFF7ECFC074600282E
:104DC0004FD12368228DF2B1721C03D04EE05A6994
:104DD00051052ED45A691006F9D5D4F824C0B4F878
:104DE00028E060460EF1FF3210F8011B1961618D59
:104DF0006062013989B26185596992B2480722859A
:104E0000E1D5002A40D1721C03D05AE05A695105FD
:104E10000FD45A695007F9D51A680021202042F4AE
:104E200000721A6084F83D0084F83C1084F83E104B
:104E300087E700226FF4806020215861226384F8A4
:104E40003D1084F83E20236C84F83C2043F004039A
:104E50002364236C042B04D12268136843F4007389
:104E600013600127384603B0BDE8F08F5A69120677
:104E7000B3D45A695105DCD4FFF7A2F9401B86422E
:104E80002DD366B323689FE79CF801201A61608DDB
:104E9000AEF10202013892B20CF1020180B2228519
:104EA000616260858FE72023C4F830B084F83D301C
:104EB00084F83EB0236C84F83CB043F020032364B4
:104EC0003EE75A695207A7D45A695105B1D4FFF792
:104ED00077F9401B864202D30EB1236893E7002284
:104EE0002023226384F83D3084F83E20236C84F82C
:104EF0003C2043F020032364ABE700BF0000FFFF2A
:104F00002DE9F04F044687B099460F469046BDF80C
:104F100044A0129DFFF754F994F83D30202B04D0A3
:104F20000227384607B0BDE8F08F064604E0FFF7D9
:104F300047F9801B19284AD822689369DB4313F08C
:104F4000020BF4D094F83C30012BE9D01368012116
:104F5000DB0784F83C1002D413680B43136013681A
:104F6000A24823F400631360222384F83D304022DA
:104F7000002384F83E202364A4F82AA0B4F82AC0B1
:104F8000109B63623946CDE900564B46E0624246CB
:104F9000A4F828C02046FFF7C7FC0746A8B9228D11
:104FA000236812BB02905A6902929A690292029A8D
:104FB0001A6842F400721A600023202284F83D200F
:104FC00084F83C3084F83E30ABE70127A9E7202382
:104FD000C4F830B084F83D3084F83EB0236C84F8D7
:104FE0003CB043F0200323649AE7012A00F091804B
:104FF000022A00F0FD800590596905919969059193
:105000000599032A48D8012A00F0BC80022A74D0EE
:10501000681C40F08D805A695107FCD51A68616A96
:1050200022F480621A601B690B70638D616A228DA5
:10503000013B9BB20131013A638561622285681CA4
:10504000226840F0818053695907FCD51368616A72
:1050500043F40073136013690B70638D606A218DD4
:105060002268013B9BB26385126900F1010C4B1E63
:10507000C4F824C023854270228D638D616A013A91
:10508000013B92B29BB20131228563856162002AA5
:1050900092D0032A2368B6D955B998E05A69D20646
:1050A00000F18280FFF78CF8801B854258D323687B
:1050B0005A695106F2D5626A1B691370618D2368C3
:1050C000228D606A013989B261855969013A92B2CB
:1050D00000F1010C49072285C4F824C0D7D51B690B
:1050E0004370C9E75A6952070CD4FFF769F8801B6F
:1050F000854235D3002D33D02368681CF2D15A691C
:105100005107FCD51A68616A42F400721A601B6983
:10511000A2E7196821F4806119600390596903912D
:10512000996903910399196841F40071196068E75E
:105130005A6952073FF572AFFFF742F8801B85426C
:105140000ED36DB1236863E753695B073FF57EAF0C
:10515000FFF736F8801B854202D3002D7FF46FAF36
:1051600000222023226384F83D3084F83E20236C03
:1051700084F83C20012743F020033846236407B01D
:10518000BDE8F08F4DB92CE05A69D1060CD4FFF779
:1051900017F8801B8542E3D323685A695006F3D57C
:1051A000626A1B69137067E700226FF0100020210C
:1051B0005861226384F83D1084F83E20236C84F803
:1051C0003C2001273846236407B0BDE8F08F5A69B8
:1051D00050063FF570AF5A69D006E5D4FEF7F0FFF0
:1051E000BEE75A695206F6D5DAE700BF0000FFFFB6
:1051F000196821F480611960196841F4006119602F
:10520000049059690491996904910499F9E600BFE1
:1052100090F83D00704700BF90F83D20D2B2202AA0
:105220001AD1036810B4242480F83D401C6824F08F
:1052300001041C605C6A24F010045C625C6A214317
:10524000596219685DF8044B41F0010119600023AF
:1052500080F83D201846704702231846704700BF6B
:10526000014B01221A60704720000E42002800F016
:1052700032812DE9F0410368DD0782B004462FD565
:10528000AC498A6802F00C02042A00F0EA808A68BD
:1052900002F00C02082A00F0E0806368B3F5803F5A
:1052A00000F0E980B3F5A02F00F05481A14D2A68E9
:1052B00022F480322A602A6822F480222A60002B9D
:1052C00040F0DE80FEF77CFF064605E0FEF778FF43
:1052D000801B642800F2F2802B689B03F6D42368BD
:1052E0009F0775D41A0715D56369002B00F0A580B8
:1052F000914B904D01221A60FEF762FF064605E0D1
:10530000FEF75EFF801B022800F2D8806B6F9B07C0
:10531000F6D5236858073BD5864A136C13F08053A3
:1053200040F0DB800193136C43F080531364136CE3
:1053300003F080530193019B0126804D2A68D1051B
:1053400040F1AC80A368012B00F0C980052B00F070
:105350000B81784D2A6F22F001022A672A6F22F012
:1053600004022A67002B40F0BF80FEF729FF41F2BC
:105370008837804606E0FEF723FFA0EB0800B8421E
:1053800000F29C802B6F9807F5D4002E40F0DC8053
:10539000A269CAB1674DA96801F00C01082948D07B
:1053A000022A674A4FF00001116000F0E780FEF723
:1053B00007FF2C46054604E0FEF702FF401B0228CB
:1053C0007CD823689B01F7D4002002B0BDE8F081AF
:1053D000584A916811F00C0F24D0916801F00C012B
:1053E00008291CD0E368002B00F09280554B514DEA
:1053F00001221A60FEF7E4FE064604E0FEF7E0FE36
:10540000801B02285AD82B689807F7D52B68226989
:1054100023F0F80343EAC2032B60236862E7526873
:105420005602DFD4434A126895074BD5E268012A39
:1054300048D0012002B0BDE8F0813F4A3D4D1360E5
:10544000FEF7BEFE064604E0FEF7BAFE801B022809
:1054500034D86B6F9F07F7D45BE74A6850027FF53B
:105460001CAF344A126891037FF53AAF6268002A94
:105470007FF436AFDDE72F4A136843F480331360BF
:10548000FEF79EFE2B4D064604E0FEF799FE801BBC
:10549000642813D82B689A03F7D520E72A6842F4CA
:1054A00080722A60FEF78CFE07462B68DA053FF50E
:1054B00049AFFEF785FEC01B0228F6D9032002B0D3
:1054C000BDE8F0811B4920690A6822F0F80242EA2F
:1054D000C0020A6006E70120704700262DE7154A42
:1054E000136F43F001031367FEF76AFE114D804608
:1054F00041F2883705E0FEF763FEA0EB0800B842F2
:10550000DCD82B6F9B07F6D5002E3FF441AF1BE094
:105510000C4A084D1360FEF753FE064604E0FEF702
:105520004FFE801B0228C9D82B689907F7D423683F
:10553000D8E600BF00380240800E474200700040AD
:105540006000474200004742234A136C23F0805317
:1055500013641DE7204B1A6842F480221A601A680F
:1055600042F480321A608BE71B4B1A6F42F0040240
:105570001A671A6F42F001021A67B5E7FEF720FEBC
:10558000064604E0FEF71CFE801B022896D82B6816
:105590009901F7D4D4E90736D4E90902E16A0E4C3F
:1055A000334343EA8013520843EA0163013A0B494B
:1055B00043EA024301226B600A60FEF701FE0546E2
:1055C00005E0FEF7FDFD401B02283FF677AF23689C
:1055D0009A01F6D5F8E600BF003802406000474265
:1055E000174908B58B6803F00C03042B1BD0082B5C
:1055F00017D14A684B6813F4800302F03F0214D1BC
:1056000049681048C1F38811A1FB0001FBF7C8FAF3
:105610000B4B5B68C3F3014301335B00B0FBF3F05A
:1056200008BD084808BD084808BD4B680648C3F3D4
:105630008813A3FB00010023FBF7B2FAE8E700BFE1
:10564000003802400024F40000127A0060B1484A99
:10565000136803F00F038B4208D2CBB213701368A8
:1056600003F00F038B4201D00120704703682DE93E
:10567000F0419D0714D55C0704D53E4CA26842F466
:10568000E052A2601A0704D53A4CA26842F4604284
:10569000A260384C8568A26822F0F0022A43A2601A
:1056A000DF0704460D4622D54268012A56D0931ED4
:1056B000012B304B1B6858D9990725D52D4EB3685F
:1056C00023F003031343B360FEF77AFD41F28837FA
:1056D000804605E0FEF774FDA0EB0800B84242D812
:1056E000B368626803F00C03B3EB820FF2D1204A77
:1056F000136803F00F03AB4209D9EBB213701368C0
:1057000003F00F03AB4202D00120BDE8F081236813
:105710005A0706D51749E0688A6822F4E052024326
:105720008A601B0711D4FFF75BFF124B12499B687D
:10573000124AC3F30313CB5C20FA03F30F20136068
:10574000FEF7FAFC0020BDE8F0810A4A216993685F
:1057500023F4604343EAC1039360E4E7054B1B680D
:105760009E03ABD4D0E70320EDE79801A6D4CBE7A6
:10577000003C024000380240A84A01083C010020D9
:10578000044B054A9B680549C3F382230868D35C30
:10579000D840704700380240B84A01083C01002058
:1057A000044B054A9B680549C3F342330868D35C40
:1057B000D840704700380240B84A01083C01002038
:1057C000F0B50446006810F0050F83B00AD18507D4
:1057D00042D410F0080003D0484B227C1A6000200D
:1057E00003B0F0BD464B474D00221A60FEF7E8FCBF
:1057F000064604E0FEF7E4FC801B022829D82B684B
:105800001B01F7D4D4E901133D4A3E4E1B0743EA7E
:1058100081130121C5F884301160FEF7D1FC0546E3
:1058200004E0FEF7CDFC401B022812D833681F01AC
:10583000F7D52068CBE70D46FEF7C2FC41F288366B
:1058400007462B6F9B073AD4FEF7BAFCC01BB04249
:10585000F7D9032003B0F0BD2A4B2B4D0022019253
:105860001A6C42F080521A641B6C03F0805301934F
:10587000019B2B6843F480732B60FEF7A1FC064666
:1058800004E0FEF79DFC801B0228E2D82B68D905B6
:10589000F7D51C49E3680A6F12F4407203F44070B4
:1058A00010D082420ED00B6F184A23F440730125AA
:1058B0000020156010600B670B6FDA07BBD4E3683C
:1058C00003F44070B0F5407F0CD00E498A6822F492
:1058D000F8128A600B4A116FC3F30B030B43136773
:1058E000206876E70748826823F0704122F4F812B6
:1058F00021F440710A438260ECE700BFE0114742A7
:10590000680047420038024000700040400E4742A5
:10591000002868D038B5437F044603F0FF02002B0F
:1059200045D0236853220220CA21607759625A6207
:10593000DA68550629D599686268D4E9045021F4DB
:10594000E00121F04001996099682A4302430A432B
:10595000E1689A6019611A69A16842EA01421A6114
:10596000DA6822F08002DA609A68910623D5196C11
:10597000A06921F4802119641A6CFF2502430121DA
:105980001A6400205D62617738BD4FF0FF32DA6043
:10599000FEF716FC054605E0FEF712FC401BB0F5CD
:1059A0007A7F19D82368DA685006F5D5C3E70277FD
:1059B00001F0B6FFB5E7DA6822F0A002DA60FEF780
:1059C000FFFB05462368DA689206D0D4FEF7F8FBA1
:1059D000401BB0F57A7FF5D92268FF21042351627C
:1059E0000120637738BD0120704700BF037F012B82
:1059F00000F096802DE9F04102230E460121017747
:105A0000054643770168002A36D08C687078327872
:105A1000B37814F0400414BFF478F4704FEA002017
:105A200040EA024018BF240418430443CA22532307
:105A30004A624B62CB685A0657D504F07F3424F093
:105A4000FE440C608A68D6E9033022F480228A6022
:105A50008A68034313438B60CB6823F08003CB60D9
:105A60008B689B065ED5FF20002301224862184602
:105A70006A772B77BDE8F0818F68307817F04007A0
:105A800016BFF778F7703F0409284FF0000407D9D4
:105A90000A38C0B2092804F10104F9D82401E4B29B
:105AA00073782043092B4FEA004457D900200A3B62
:105AB000DBB2092B00F10100F9D800015FFA80FC8C
:105AC000B07843EA0C0309284FEA032344D90A3883
:105AD000C0B2092802F10102F9D81201D2B23C4346
